{
  "_format": "hh-sol-artifact-1",
  "contractName": "Token",
  "sourceName": "contracts/Token.sol",
  "abi": [
    {
      "inputs": [
        {
          "internalType": "address",
          "name": "owner",
          "type": "address"
        },
        {
          "internalType": "address",
          "name": "spender",
          "type": "address"
        }
      ],
      "name": "allowance",
      "outputs": [
        {
          "internalType": "uint256",
          "name": "",
          "type": "uint256"
        }
      ],
      "stateMutability": "view",
      "type": "function"
    },
    {
      "inputs": [
        {
          "internalType": "address",
          "name": "spender",
          "type": "address"
        },
        {
          "internalType": "uint256",
          "name": "value",
          "type": "uint256"
        }
      ],
      "name": "approve",
      "outputs": [
        {
          "internalType": "bool",
          "name": "",
          "type": "bool"
        }
      ],
      "stateMutability": "nonpayable",
      "type": "function"
    },
    {
      "inputs": [
        {
          "internalType": "address",
          "name": "",
          "type": "address"
        }
      ],
      "name": "balanceOf",
      "outputs": [
        {
          "internalType": "uint256",
          "name": "",
          "type": "uint256"
        }
      ],
      "stateMutability": "view",
      "type": "function"
    },
    {
      "inputs": [
        {
          "internalType": "address payable",
          "name": "dest",
          "type": "address"
        }
      ],
      "name": "burn",
      "outputs": [],
      "stateMutability": "nonpayable",
      "type": "function"
    },
    {
      "inputs": [],
      "name": "decimals",
      "outputs": [
        {
          "internalType": "uint256",
          "name": "",
          "type": "uint256"
        }
      ],
      "stateMutability": "view",
      "type": "function"
    },
    {
      "inputs": [],
      "name": "getNumTokenHolders",
      "outputs": [
        {
          "internalType": "uint256",
          "name": "",
          "type": "uint256"
        }
      ],
      "stateMutability": "view",
      "type": "function"
    },
    {
      "inputs": [
        {
          "internalType": "uint256",
          "name": "index",
          "type": "uint256"
        }
      ],
      "name": "getTokenHolder",
      "outputs": [
        {
          "internalType": "address",
          "name": "",
          "type": "address"
        }
      ],
      "stateMutability": "view",
      "type": "function"
    },
    {
      "inputs": [
        {
          "internalType": "address",
          "name": "payee",
          "type": "address"
        }
      ],
      "name": "getWithdrawableDividend",
      "outputs": [
        {
          "internalType": "uint256",
          "name": "",
          "type": "uint256"
        }
      ],
      "stateMutability": "view",
      "type": "function"
    },
    {
      "inputs": [],
      "name": "mint",
      "outputs": [],
      "stateMutability": "payable",
      "type": "function"
    },
    {
      "inputs": [],
      "name": "name",
      "outputs": [
        {
          "internalType": "string",
          "name": "",
          "type": "string"
        }
      ],
      "stateMutability": "view",
      "type": "function"
    },
    {
      "inputs": [],
      "name": "recordDividend",
      "outputs": [],
      "stateMutability": "payable",
      "type": "function"
    },
    {
      "inputs": [],
      "name": "symbol",
      "outputs": [
        {
          "internalType": "string",
          "name": "",
          "type": "string"
        }
      ],
      "stateMutability": "view",
      "type": "function"
    },
    {
      "inputs": [],
      "name": "totalSupply",
      "outputs": [
        {
          "internalType": "uint256",
          "name": "",
          "type": "uint256"
        }
      ],
      "stateMutability": "view",
      "type": "function"
    },
    {
      "inputs": [
        {
          "internalType": "address",
          "name": "to",
          "type": "address"
        },
        {
          "internalType": "uint256",
          "name": "value",
          "type": "uint256"
        }
      ],
      "name": "transfer",
      "outputs": [
        {
          "internalType": "bool",
          "name": "",
          "type": "bool"
        }
      ],
      "stateMutability": "nonpayable",
      "type": "function"
    },
    {
      "inputs": [
        {
          "internalType": "address",
          "name": "from",
          "type": "address"
        },
        {
          "internalType": "address",
          "name": "to",
          "type": "address"
        },
        {
          "internalType": "uint256",
          "name": "value",
          "type": "uint256"
        }
      ],
      "name": "transferFrom",
      "outputs": [
        {
          "internalType": "bool",
          "name": "",
          "type": "bool"
        }
      ],
      "stateMutability": "nonpayable",
      "type": "function"
    },
    {
      "inputs": [
        {
          "internalType": "address payable",
          "name": "dest",
          "type": "address"
        }
      ],
      "name": "withdrawDividend",
      "outputs": [],
      "stateMutability": "nonpayable",
      "type": "function"
    }
  ],
  "bytecode": "0x601260015560c0604052600a6080819052692a32b9ba103a37b5b2b760b11b60a090815262000032916002919062000075565b5060408051808201909152600480825263151154d560e21b6020909201918252620000609160039162000075565b503480156200006e57600080fd5b5062000111565b828054600181600116156101000203166002900490600052602060002090601f016020900481019282601f10620000b857805160ff1916838001178555620000e8565b82800160010185558215620000e8579182015b82811115620000e8578251825591602001919060010190620000cb565b50620000f6929150620000fa565b5090565b5b80821115620000f65760008155600101620000fb565b61105c80620001216000396000f3fe6080604052600436106100f35760003560e01c806389afcb441161008a578063a4138b9b11610059578063a4138b9b14610323578063a9059cbb14610356578063ca55954c1461038f578063dd62ed3e146103d5576100f3565b806389afcb441461029357806395d89b41146102c65780639c53c0ca146102db578063a0ced69d1461030e576100f3565b806323b872dd116100c657806323b872dd14610200578063313ce5671461024357806350ca75551461025857806370a0823114610260576100f3565b806306fdde03146100f8578063095ea7b3146101825780631249c58b146101cf57806318160ddd146101d9575b600080fd5b34801561010457600080fd5b5061010d610410565b6040805160208082528351818301528351919283929083019185019080838360005b8381101561014757818101518382015260200161012f565b50505050905090810190601f1680156101745780820380516001836020036101000a031916815260200191505b509250505060405180910390f35b34801561018e57600080fd5b506101bb600480360360408110156101a557600080fd5b506001600160a01b03813516906020013561049b565b604080519115158252519081900360200190f35b6101d76104ca565b005b3480156101e557600080fd5b506101ee61054f565b60408051918252519081900360200190f35b34801561020c57600080fd5b506101bb6004803603606081101561022357600080fd5b506001600160a01b03813581169160208101359091169060400135610555565b34801561024f57600080fd5b506101ee610741565b6101d7610747565b34801561026c57600080fd5b506101ee6004803603602081101561028357600080fd5b50356001600160a01b031661089a565b34801561029f57600080fd5b506101d7600480360360208110156102b657600080fd5b50356001600160a01b03166108ac565b3480156102d257600080fd5b5061010d610961565b3480156102e757600080fd5b506101d7600480360360208110156102fe57600080fd5b50356001600160a01b03166109bc565b34801561031a57600080fd5b506101ee610a51565b34801561032f57600080fd5b506101ee6004803603602081101561034657600080fd5b50356001600160a01b0316610a57565b34801561036257600080fd5b506101bb6004803603604081101561037957600080fd5b506001600160a01b038135169060200135610a76565b34801561039b57600080fd5b506103b9600480360360208110156103b257600080fd5b5035610b95565b604080516001600160a01b039092168252519081900360200190f35b3480156103e157600080fd5b506101ee600480360360408110156103f857600080fd5b506001600160a01b0381358116916020013516610be1565b6002805460408051602060018416156101000260001901909316849004601f810184900484028201840190925281815292918301828280156104935780601f1061046857610100808354040283529160200191610493565b820191906000526020600020905b81548152906001019060200180831161047657829003601f168201915b505050505081565b3360009081526005602090815260408083206001600160a01b0386168452909152902081905560015b92915050565b60003411610508576040805162461bcd60e51b81526020600482015260066024820152650dcde40cae8d60d31b604482015290519081900360640190fd5b6000546105159034610c0c565b6000908155338152600460205260409020546105319034610c0c565b3360008181526004602052604090209190915561054d90610c6d565b565b60005481565b60006001600160a01b03831661059f576040805162461bcd60e51b815260206004820152600a602482015269696e76616c696420746f60b01b604482015290519081900360640190fd5b6001600160a01b038416600090815260046020526040902054821115610603576040805162461bcd60e51b8152602060048201526014602482015273696e73756666696369656e742062616c616e636560601b604482015290519081900360640190fd5b6001600160a01b0384166000908152600560209081526040808320338452909152902054821115610674576040805162461bcd60e51b8152602060048201526016602482015275696e73756666696369656e7420616c6c6f77616e636560501b604482015290519081900360640190fd5b6001600160a01b03841660009081526005602090815260408083203384529091529020546106a29083610d0d565b6001600160a01b0385166000818152600560209081526040808320338452825280832094909455918152600490915220546106dd9083610d0d565b6001600160a01b03808616600090815260046020526040808220939093559085168152205461070c9083610c0c565b6001600160a01b03841660009081526004602052604090205561072e84610d4f565b61073783610c6d565b5060019392505050565b60015481565b6000341161078e576040805162461bcd60e51b815260206004820152600f60248201526e1b9bc8195d1a081cdd5c1c1b1a5959608a1b604482015290519081900360640190fd5b60008054116107d0576040805162461bcd60e51b81526020600482015260096024820152686e6f20737570706c7960b81b604482015290519081900360640190fd5b3460005b600654811015610896576000600682815481106107ed57fe5b60009182526020808320909101546001600160a01b031680835260049091526040909120549091508061082157505061088e565b60008054610839906108333485610e6e565b90610ec7565b9050801561088a576001600160a01b0383166000908152600860205260409020546108649082610c0c565b6001600160a01b0384166000908152600860205260409020556108878582610d0d565b94505b5050505b6001016107d4565b5050565b60046020526000908152604090205481565b33600090815260046020526040902054806108fa576040805162461bcd60e51b81526020600482015260096024820152686e6f20746f6b656e7360b81b604482015290519081900360640190fd5b6000546109079082610d0d565b6000908155338082526004602052604082209190915561092690610d4f565b6040516001600160a01b0383169082156108fc029083906000818181858888f1935050505015801561095c573d6000803e3d6000fd5b505050565b6003805460408051602060026001851615610100026000190190941693909304601f810184900484028201840190925281815292918301828280156104935780601f1061046857610100808354040283529160200191610493565b3360009081526008602052604090205480610a0c576040805162461bcd60e51b815260206004820152600b60248201526a1b9bc8191a5d9a59195b9960aa1b604482015290519081900360640190fd5b33600090815260086020526040808220829055516001600160a01b0384169183156108fc02918491818181858888f1935050505015801561095c573d6000803e3d6000fd5b60065490565b6001600160a01b0381166000908152600860205260409020545b919050565b60006001600160a01b038316610ac0576040805162461bcd60e51b815260206004820152600a602482015269696e76616c696420746f60b01b604482015290519081900360640190fd5b33600090815260046020526040902054821115610b1b576040805162461bcd60e51b8152602060048201526014602482015273696e73756666696369656e742062616c616e636560601b604482015290519081900360640190fd5b33600090815260046020526040902054610b359083610d0d565b33600090815260046020526040808220929092556001600160a01b03851681522054610b619083610c0c565b6001600160a01b038416600090815260046020526040902055610b8333610d4f565b610b8c83610c6d565b50600192915050565b60008082118015610ba857506006548211155b15610bd95760066001830381548110610bbd57fe5b6000918252602090912001546001600160a01b03169050610a71565b506000919050565b6001600160a01b03918216600090815260056020908152604080832093909416825291909152205490565b600082820183811015610c66576040805162461bcd60e51b815260206004820152601b60248201527f536166654d6174683a206164646974696f6e206f766572666c6f770000000000604482015290519081900360640190fd5b9392505050565b6001600160a01b03811660009081526004602052604090205415801590610caa57506001600160a01b038116600090815260076020526040902054155b15610d0a57600680546001810182557ff652222313e28459528d920b65115c16c04f3efc82aaedc97be59f3f377c0d3f0180546001600160a01b0319166001600160a01b0384169081179091559054600091825260076020526040909120555b50565b6000610c6683836040518060400160405280601e81526020017f536166654d6174683a207375627472616374696f6e206f766572666c6f770000815250610f09565b6001600160a01b038116600090815260046020526040902054158015610d8c57506001600160a01b03811660009081526007602052604090205415155b15610d0a576001600160a01b038116600090815260076020526040812054600680549192916000198101908110610dbf57fe5b600091825260209091200154600680546001600160a01b03909216925082916000198501908110610dec57fe5b9060005260206000200160006101000a8154816001600160a01b0302191690836001600160a01b031602179055506006805480610e2557fe5b60008281526020808220600019908401810180546001600160a01b03191690559092019092556001600160a01b0392831682526007905260408082209390935592168252812055565b600082610e7d575060006104c4565b82820282848281610e8a57fe5b0414610c665760405162461bcd60e51b81526004018080602001828103825260218152602001806110066021913960400191505060405180910390fd5b6000610c6683836040518060400160405280601a81526020017f536166654d6174683a206469766973696f6e206279207a65726f000000000000815250610fa0565b60008184841115610f985760405162461bcd60e51b81526004018080602001828103825283818151815260200191508051906020019080838360005b83811015610f5d578181015183820152602001610f45565b50505050905090810190601f168015610f8a5780820380516001836020036101000a031916815260200191505b509250505060405180910390fd5b505050900390565b60008183610fef5760405162461bcd60e51b8152602060048201818152835160248401528351909283926044909101919085019080838360008315610f5d578181015183820152602001610f45565b506000838581610ffb57fe5b049594505050505056fe536166654d6174683a206d756c7469706c69636174696f6e206f766572666c6f77a2646970667358221220beb884a846236b41298b6a4b768c22720a84ea20ef6396a91fea552b860fc11764736f6c63430007000033",
  "linkReferences": {},
  "deployedLinkReferences": {}
}